:100000000EC028C07CC027C025C024C023C022C089
:1000100021C020C01FC01EC01DC01CC01BC0112499
:100020001FBECFE5D2E0DEBFCDBF10E0A0E6B0E05E
:10003000E6E3F5E002C005900D92A43EB107D9F7C2
:1000400020E0A4EEB0E001C01D92AB3EB207E1F7A4
:10005000B7D06FC2D5CF1F920F920FB60F92112457
:100060002F935F936F937F938F939F93EF93FF9360
:10007000E091E700F0E0E05AFF4F80816091E800F6
:1000800070E090E02CD299BD8091E9009091EA0057
:100090008230914050F48091E9009091EA000196FD
:1000A0009093EA008093E90002C01092E4008091EE
:1000B000E7008F3730F48091E7008F5F8093E7008F
:1000C00011C01092E7008091E600843130F48091F5
:1000D000E6008F5F8093E60005C01092E60081E0A5
:1000E0008093E500FF91EF919F918F917F916F91A8
:1000F0005F912F910F900FBE0F901F9018951F9238
:100100000F920FB60F9211242F938F939F93B49B4E
:1001100032C08091E9009091EA008F3F910509F08B
:1001200018F48DB581508DBD8091E9009091EA0061
:100130008130914018F08DB58F5F8DBD8091E900C1
:100140009091EA008115914019F481E08093E400D8
:100150008091E9009091EA008F3F910530F08DB5D4
:10016000893918F08DB5813A10F01092E4001092A0
:10017000EA001092E9009F918F912F910F900FBE8E
:100180000F901F90189517B886E086B986B18068E1
:1001900086B98CE084BB86B1806486B93699FECF7F
:1001A00084B195B1089597B1907E8F71892B87B9ED
:1001B00086B1806486B93699FECF84B195B1089531
:1001C000CF93DF93CDB7DEB7C554D1090FB6F894FE
:1001D000DEBF0FBECDBF81E087BB93E89ABD83BF72
:1001E00084E880BF8CE98DBD1EBC80E489BF80E2BD
:1001F0008BBF80E185BBC7DF80E00FC0E82FF0E058
:10020000EE0FFF1F21E030E02C0F3D1FE20FF31F28
:100210001182108211A210A28F5F803178F378943E
:10022000A12CB12CE12CF12C412C512C3201212C90
:10023000312C24961FAE1EAE2497812C912C26962D
:100240001FAE1EAE2697C12CD12C31E022963FAFB7
:10025000229718C02B013C012696FFAEEEAE2697E2
:1002600011C0C12C83E022968FAF22970BC0C12C06
:1002700093E022969FAF229705C0C12CE3E022961F
:10028000EFAF229706B3027010E00115110521F4BB
:100290008091E400811106C01092E800F1E02296FE
:1002A000FFAF22978091E50081113BC02FE02D1513
:1002B00008F4D12C0D2D10E0000F111F81E090E00B
:1002C0008C0F9D1F080F191FF80180819181E81A7A
:1002D000F90A81E068DFF80191838083E80EF91E56
:1002E00080A191A1A81AB90A83E05DDFF80191A36A
:1002F00080A3A80EB91ED3942296FFAD2297F230A8
:1003000009F6C701A0E0B0E0950140E050E0BC0173
:10031000CD01F6D0461657066806790608F49ACF3E
:10032000B1CF1092E5008FE887B98FE03CDF17B8B6
:1003300022962FAD2297223031F1233009F45DC08F
:10034000213009F09FCF012B09F09CCF8091E40070
:10035000882309F497CF1092E800412C512C3201E8
:100360000F2EF0EA2F2EF9E13F2EF02D80EA99E1D1
:1003700024969FAF8EAF2497812C912C92E02296E9
:100380009FAF22977FCF2E143F0408F41701CC2093
:1003900081F0C1019695879596958795F101E81BA7
:1003A000F90B24962EAD3FAD24972E173F0740F052
:1003B0000BC080EA99E124969FAF8EAF249704C0CA
:1003C0002496FFAFEEAF24972496EEADFFAD2497B1
:1003D000EE15FF0508F045CFF0ECAF16FBE2BF06C7
:1003E00008F045CF8091E8008F3F09F446CF809117
:1003F000E8008F5F8093E80045CF20E4E21627E114
:10040000F20630F48091E80086958093E80031C0D0
:100410002696EEADFFAD2697EE16FF0648F0F1ECFE
:10042000AF16FBE2BF0620F4843621E0920748F0C5
:100430002091E800222329F02091E8002150209308
:10044000E8002696EEADFFAD2697EE15FF0588F481
:10045000F0ECAF16FBE2BF0660F48E35914048F435
:100460008091E8008F3F29F08091E8008F5F8093B2
:10047000E8003FEF831A930A88EB88168BE0980612
:1004800029F090E7891697E1990691F49091E80098
:10049000969596958091E800891B8093E800412C01
:1004A000512C3201CC24C394E2E02296EFAF229784
:1004B000F8E28F16F3E29F0609F0E4CE8091E8009F
:1004C0008695869586958093E800412C512C3201C3
:1004D000812C912C22E022962FAF2297D3CE00249C
:1004E000552704C0080E591F880F991F009729F03F
:1004F00076956795B8F37105B9F7802D952F089516
:10050000EE27FF27AA27BB2708C0A20FB31FE41FAF
:10051000F51F220F331F441F551F9695879577951A
:10052000679598F37040A9F7009799F7BD01CF013F
:060530000895F894FFCFCE
:1005360000000000050C131A21282F373E454B52A8
:10054600595F666C72797F858B91979BA1A6ACB13A
:10055600B5BABFC4C7CCD0D4D8DBDFE3E5E8EBED52
:10056600F0F2F4F6F8F9FAFBFDFEFEFFFFFFFFFFDF
:10057600FEFEFDFBFAF9F8F6F4F2F0EDEBE8E5E342
:10058600DFDBD8D4D0CCC7C4BFBAB5B1ACA6A19B6B
:1005960097918B857F79726C665F59524B453E37D2
:1005A6002F28211A130C050000000000000000008F
:0405B6000000000041
:00000001FF
