:100000000EC028C07BC027C025C024C023C022C08A
:1000100021C020C01FC01EC01DC01CC01BC0112499
:100020001FBECFE5D2E0DEBFCDBF10E0A0E6B0E05E
:10003000E4ECF5E002C005900D92A43EB107D9F7BB
:1000400020E0A4EEB0E001C01D92AD3EB207E1F7A2
:10005000BED0B6C2D5CF1F920F920FB60F92112409
:100060002F935F936F937F938F939F93EF93FF9360
:10007000E091EB00F091EC00EF77FF27E05AFF4FA3
:1000800080816091E60070E090E070D299BD80912F
:10009000E7009091E8008230954050F48091E700AD
:1000A0009091E80001969093E8008093E70007C0E4
:1000B0001092E8001092E70081E08093E5008091C3
:1000C000EB009091EC0001969093EC008093EB0094
:1000D0008091EB009091EC008330914010F01092F1
:1000E000E400FF91EF919F918F917F916F915F91CC
:1000F0002F910F900FBE0F901F9018951F920F9287
:100100000FB60F9211242F938F939F93B49B3AC0F5
:100110008091EB009091EC008F3F910509F018F46D
:100120008DB581508DBD8091EB009091EC008130B8
:10013000914018F08DB58F5F8DBD8091EB0090914F
:10014000EC008115914019F481E08093E4008DB5B5
:10015000863918F08DB5813A10F01092E4008DB513
:10016000863960F08DB58D3948F42DB58CE990E075
:10017000821B91099093EA008093E9001092EC00B1
:100180001092EB009F918F912F910F900FBE0F90C7
:100190001F90189517B886E086B986B1806886B931
:1001A0008CE084BB86B1806486B93699FECF84B179
:1001B00095B1089597B1907E8F71892B87B986B1DB
:1001C000806486B93699FECF84B195B10895CF93F6
:1001D000DF93CDB7DEB7C654D1090FB6F894DEBFB2
:1001E0000FBECDBF81E087BB93E89ABD83BF84E893
:1001F00080BF8CE98DBD1EBC80E489BF80E28BBFCF
:1002000080E185BBC7DF80E00FC0E82FF0E0EE0F94
:10021000FF1F21E030E02C0F3D1FE20FF31F118282
:10022000108211A210A28F5F803178F37894A12CF4
:10023000B12CE12CF12C412C512C3201212C312CF0
:1002400026961FAE1EAE2697812C912C24961FAEAB
:100250001EAE2497C12C27961FAE2797D12C31E0D4
:1002600022963FAF229720C02B013C012496FFAE7F
:10027000EEAE249719C027961FAE279715C0279674
:100280001FAE279711C0C12C43E022964FAF229793
:100290000BC0C12C53E022965FAF229705C0C12C42
:1002A00083E022968FAF229706B3027010E001150B
:1002B000110521F48091E400811106C01092E6003E
:1002C00091E022969FAF22978091E50081113BC07B
:1002D000EFE0ED1508F4D12C0D2D10E0000F111FEB
:1002E00021E030E02C0F3D1F020F131FF801808129
:1002F0009181E81AF90A81E05DDFF801918380833A
:10030000E80EF91E80A191A1A81AB90A83E052DF74
:10031000F80191A380A3A80EB91ED3942296FFAD35
:100320002297F23009F6C701A0E0B0E0950140E065
:1003300050E0BC01CD012BD1461657066806790660
:1003400008F492CFB1CF1092E5008FE887B98FE023
:1003500031DF21E027B94091E9005091EA00BA016C
:100360000024769567950794769567950794762F80
:10037000602D640F751F660F771F660F771F660F5E
:10038000771F640F751F9B01220F331F2295329533
:10039000307F3227207F3227261B370B220F331F57
:1003A000220F331F241B350B220F331F2454344DCF
:1003B00022964FAD2297423099F1433009F468C03C
:1003C000413009F071CF012B09F055CF8091E40045
:1003D000882309F454CF27965FAD2797523328F42A
:1003E0005F5F27965FAF27975FCF1092E600412CA3
:1003F000512C32010F2EF0EA2F2EF9E13F2EF02D75
:1004000080EA99E126969FAF8EAF2697812C912C9A
:1004100027961FAE279792E022969FAF229744CF50
:100420002E143F0408F41701CC2081F0C1019695E9
:10043000879596958795F101E81BF90B26964EADA9
:100440005FAD26974E175F0740F00BC080EA99E139
:1004500026969FAF8EAF269704C02696FFAFEEAFCD
:1004600026972696EEADFFAD2697EE15FF0508F010
:100470000ACFA216B30608F00CCF8091E6008F3F9A
:1004800009F40DCF8091E6008F5F8093E6000CCFDA
:10049000F0E4EF16F7E1FF0630F48091E600869570
:1004A0008093E6002DC024964EAD5FAD2497E416F0
:1004B000F50638F02A153B0520F0843651E0950703
:1004C00048F04091E600442329F04091E600415075
:1004D0004093E6002496EEADFFAD2497EE15FF05A0
:1004E00078F4A216B30660F48E35914048F48091FA
:1004F000E6008F3F29F08091E6008F5F8093E60051
:100500002FEF821A920A30E7831637E1930629F01B
:1005100040EE84164EE2940691F49091E600969592
:1005200096958091E600891B8093E600412C512C22
:100530003201CC24C39452E022965FAF229780E52B
:10054000881686E4980609F0AFCE8091E60086957D
:10055000869586958093E600412C512C3201812CA2
:10056000912C92E022969FAF22979ECE0024552791
:1005700004C0080E591F880F991F009729F076951F
:100580006795B8F37105B9F7802D952F0895EE277B
:10059000FF27AA27BB2708C0A20FB31FE41FF51F20
:1005A000220F331F441F551F9695879577956795A2
:1005B00098F37040A9F7009799F7BD01CF0108950E
:0405C000F894FFCFDD
:1005C40000000000050C131A21282F373E454B521A
:1005D400595F666C72797F858B91979BA1A6ACB1AC
:1005E400B5BABFC4C7CCD0D4D8DBDFE3E5E8EBEDC4
:1005F400F0F2F4F6F8F9FAFBFDFEFEFFFFFFFFFF51
:10060400FEFEFDFBFAF9F8F6F4F2F0EDEBE8E5E3B3
:10061400DFDBD8D4D0CCC7C4BFBAB5B1ACA6A19BDC
:1006240097918B857F79726C665F59524B453E3743
:100634002F28211A130C0500000000000000000000
:0406440000000000B2
:00000001FF
